:020000040800F2
:10000000480A0020F9010008010200080302000864
:1000100005020008070200080902000800000000AD
:100020000000000000000000000000000B020008BB
:100030000D020008000000000F0200081102000875
:10004000130200081302000813020008130200083C
:10005000130200081302000813020008130200082C
:10006000130200081302000813020008130200081C
:10007000130200081302000813020008130200080C
:1000800013020008130200081302000813020008FC
:1000900013020008130200081302000813020008EC
:1000A00013020008130200081302000813020008DC
:1000B00013020008130200081302000813020008CC
:1000C00013020008130200081302000813020008BC
:1000D000130200081302000849180008E11800087C
:1000E000130200080D100008130200081302000894
:1000F0001302000800F002F800F06EF80AA090E881
:10010000000C82448344AAF10107DA4501D100F0D2
:1001100063F8AFF2090EBAE80F0013F0010F18BF31
:10012000FB1A43F001031847C8380000E838000004
:100130000A444FF0000C10F8013B13F0070408BF0D
:1001400010F8014B1D1108BF10F8015B641E05D0AB
:1001500010F8016B641E01F8016BF9D113F0080F60
:100160001EBF10F8014BAD1C0C1B09D16D1E58BFF2
:1001700001F801CBFAD505E014F8016B01F8016B29
:100180006D1EF9D59142D6D370470000002300249C
:1001900000250026103A28BF78C1FBD8520728BF97
:1001A00030C148BF0B607047642900F0C3807829D4
:1001B00000F0FC80732900F02482002070471FB5F6
:1001C00000F08AFA04000020002102F05FFB401CCE
:1001D00060601FBD10B510BD00F094FA1146FFF726
:1001E000EEFF02F0F1F800F0B2FA03B4FFF7F2FF0D
:1001F00003BC00F0F5FA00000948804709480047B1
:10020000FEE7FEE7FEE7FEE7FEE7FEE7FEE7FEE7C6
:10021000FEE7FEE704480549054A064B7047000023
:1002200075170008F500000848040020480A00205F
:1002300048060020480600200FB4044910B503AA60
:10024000029800F0E3F910BC5DF814FBA001002057
:100250000FB41CB5074B06AA7B446946009005986D
:1002600000F0A5F90020694600F0B4F91CBC5DF867
:1002700014FB0000790300002DE9F0410E4604460E
:10028000002020622046E168884730B3252805D049
:10029000D4E901219047206A401CF2E7E16820463A
:1002A00000278847050018D0A5F14100192802D879
:1002B00020354FF400673246294620462760FFF775
:1002C00073FF40B1012804D0F61D26F0070608365A
:1002D000D8E7361DD6E72846DAE7206ABDE8F08180
:1002E00070B50C460546012A05D02878800600D551
:1002F000EA69002302E0012305E05B1C934202D27D
:10030000E05C0028F9D1A869E618C01AA861286A3B
:10031000184428622846AFF3008004E0D5E90121A3
:1003200014F8010B9047B442F8D32846AFF300808D
:1003300070BD00002DE9F0410646002410687529C3
:10034000314616A510D0AFF30080002802DA4042F3
:1003500013A507E031688A0701D512A502E0490715
:1003600004D511A5012401E0AFF3008000210A2289
:1003700006F1240709E0B0FBF2FCB0FBF2F302FB4C
:100380001C00303078541846491C0028F3D123460D
:100390002A463046BDE8F04100F0ABB8000000004E
:1003A0002D0000002B0000002000000070B5044666
:1003B0000D4621461068AFF300802188090502D55B
:1003C0000F4A7A4402E00E4A7A440E32002104F1C8
:1003D000240305E000F00F060009965D5E54491CF9
:1003E0000028F7D120780023000704D5702D02D013
:1003F00009B1022311322046BDE8704000F079B8FF
:10040000C03500002DE9F04791460F46804604466E
:10041000002614F8015B2DB100F054F80068405D2F
:10042000C007F6D12B2D02D02D2D18D0641E4A46C0
:100430003946204600F0FCF827B13968A14201D1C5
:10044000C7F800804FF0020471050BD54042002828
:1004500003DD00F03FF80460A007BDE8F08746F434
:100460008066E4E70028F8DA00F034F804606FF002
:100470000040F2E740EA0103024630B59B0710D185
:100480004FF0013400E008C208C91D1B9D4315EA66
:10049000C41FF8D013F0FF0102F8011B0DD01B0A96
:1004A000F8E711F8013B002B02F8013B05D011F8E9
:1004B000013B002B02F8013BF3D130BD7047704780
:1004C0007047000010B500F007F9001D10BD00BF17
:1004D000BD23000000487047E403002010B5FFF77B
:1004E000F9FF006810BD10B50446FFF7F3FF046084
:1004F00010BD2DE9F0470D4699469246044600F19D
:1005000024080168880604D5E06921F01001216003
:1005100000E00120A84201DD471B00E00027A1699F
:100520007A1902EB0900081AA0612078C00602D4EB
:100530002046AFF30080002608E0D4E901211AF834
:1005400006009047206A401C761C20624E45F4DB72
:100550002078C0060AD52046AFF3008006E0D4E933
:10056000012130209047206A401C2062381EA7F1EC
:100570000107F4DC07E0D4E9012118F805009047F1
:10058000206A401C2062281EA5F10105F3DC2046EC
:10059000AFF300802078000602D50220BDE8F08786
:1005A0000120FBE701694A1C02610878704700B529
:1005B0008FB0CDE901310021059105497944CDE99C
:1005C000031011466846FFF757FE0FB000BD00004C
:1005D000E5FFFFFF0A6802F8010B0A60704710B5DB
:1005E000436913B1AFF3008001E0FFF779FE01200A
:1005F00010BD127800F124010A7000224A70012215
:10060000EDE711684FF0FF32E9E70000074B70B5E6
:100610000D467B44FFF7CBFF0446284600F06EF8FA
:1006200010B14FF0FF3070BD204670BDDB180000E8
:100630002DE9F05F824615468B4600270AF101043A
:10064000B9460078302801D09DB113E014F8010BB1
:100650000127782803D0582801D045B10AE00DB110
:10066000102D07D1002714F8010B102502E00825F2
:1006700000E00A250026B0460EE005FB080005FB59
:1006800006F101271FFA80F801EB1046B6F5803F0E
:1006900000D3B94614F8010B294600F021F80028D0
:1006A000EBDABBF1000F05D00FB1641E00E0544639
:1006B000CBF80040B9F1000F06D0FFF70BFF022185
:1006C0000160C81EBDE8F09F48EA0640FAE7000056
:1006D00000487047E40300200048704704040020ED
:1006E0003A2800D2303820F02002412A01D3A2F16A
:1006F0003700884201D34FF0FF307047007B00F095
:10070000800070477546FFF7E3FFAE460500694677
:10071000534620F00700854618B020B5FFF77AFD54
:10072000BDE820404FF000064FF000074FF00008F2
:100730004FF0000B21F00701AC46ACE8C009ACE873
:10074000C009ACE8C009ACE8C0098D46704710B5D7
:100750000446AFF300802046BDE81040FFF745BDDA
:100760004FF0013C50F8042B51F8043B9A4221D140
:10077000A2EB0C03934313EACC1317D150F8042BCC
:1007800051F8043B9A4215D1A2EB0C03934313EAB0
:10079000CC130BD150F8042B51F8043B9A4209D1E9
:1007A000A2EB0C03934313EACC13DBD04FF0000011
:1007B000704700BFD01A01BAB1FA81F101F01801F7
:1007C00022FA01F0CB40C1F12001DBB2C0B2C01A65
:1007D0002CFA01F3D11A914311EAC311E6D1704703
:1007E00001491820ABBEFEE726000200704721B188
:1007F000826842F00102826003E0826822F0010216
:100800008260704701460020044A106820F440309E
:100810000A681043014A1060704700000427014035
:1008200000B589B00121480200F0E6FA012102205A
:1008300000F0B2FA0120009003208DF8040000209F
:100840008DF807006946174800F048F94FF400306A
:10085000029002A8FFF7D6FF4FF0807003900020AF
:100860008DF8100001208DF81100002005904FF048
:10087000407006900020079001208DF8200003A909
:10088000094800F027F8002301220821064800F05B
:100890004BF801210448FFF7AAFF034800F0F0F8E5
:1008A00009B000BD000402400024014010B5044618
:1008B000012C04D18021044800F07EF903E080215E
:1008C000014800F07BF910BD000002400146886D30
:1008D00080B2704730B50246002000235068104CAB
:1008E00020400D790C6844EA05242043506090684C
:1008F0000C4C2040D1E903542C438D682C434D7996
:1009000044EA450420439060106B20F0F8700C7DA1
:10091000641EE4B2234340EA0350106330BD00007C
:10092000FFFEFFFCFDF7FFC0F0B504460D460020BA
:1009300000211D2D11DDE06DA5F11E0606EB460719
:10094000072606FA07F18843A5F11E0606EB4606C0
:1009500003FA06F10843E06534E0132D11DDE06889
:10096000A5F1140606EB4607072606FA07F18843A9
:10097000A5F1140606EB460603FA06F10843E0600B
:1009800020E0092D11DD2069A5F10A0606EB4607D6
:10099000072606FA07F18843A5F10A0606EB460684
:1009A00003FA06F1084320610CE0606905EB450796
:1009B000072606FA07F1884305EB450603FA06F118
:1009C00008436061072A0FDA206C561E06EB860783
:1009D0001F2606FA07F18843561E06EB860605FA1F
:1009E00006F1084320644AE00D2A0FDAE06BD61FB7
:1009F00006EB86071F2606FA07F18843D61F06EB8B
:100A0000860605FA06F10843E06338E0132A11DA96
:100A1000A06BA2F10D0606EB86071F2606FA07F16A
:100A20008843A2F10D0606EB860605FA06F1084397
:100A3000A06324E0192A11DA606BA2F1130606EB19
:100A400086071F2606FA07F18843A2F1130606EB74
:100A5000860605FA06F10843606310E0206BA2F1F8
:100A6000190606EB86071F2606FA07F18843A2F14E
:100A7000190606EB860605FA06F108432063F0BD69
:100A8000816841F080418160704700000149086041
:100A9000704700001404014010B504460548046086
:100AA0000020044908710120C871034800F016F8BD
:100AB00010BD0000AC0100200000024010B504464B
:100AC000044804600120034908714871024800F09D
:100AD00005F810BDAC01002000000240F0B5024650
:100AE0000B46002100240025002000BF35E0012630
:100AF00006FA01F41E6806EA0405A5422CD1106826
:100B00004F000326BE40B0431E794F00BE40304325
:100B100010601E79012E02D01E79022E12D190682B
:100B20004F000326BE40B0435E794F00BE403043C5
:100B30009060908801268E40B0439E798E40B6B278
:100B400030439080D0684F000326BE40B043DE792A
:100B50004F00BE403043D060491C1029C7D3F0BDC0
:100B6000F0B5002300244D07ED0E02FA05F3CE1078
:100B700000F1200555F826504E07F70E0F26BE400F
:100B8000B543CF1000F1200646F82750CE1000F1F3
:100B9000200555F8265045EA0304CE1000F1200543
:100BA00045F82640F0BD02460020138A0B400BB1E9
:100BB000012000E0002070474183704701837047A7
:100BC000828A4A40828270470AB1018300E04183F1
:100BD0007047000004490160044941600449816094
:100BE0000449C160016170470000C8410000E04055
:100BF000140EFE440080BB4410B50121032000F018
:100C0000CBF801200E4908710020C87188710320BB
:100C1000487148F2920008600A48FFF75FFF41F20E
:100C20000A10074908600848FFF758FF08210648DE
:100C3000FFF7C4FF4FF400410248FFF7BDFF10BDAE
:100C4000A4010020000002400004024010B5044648
:100C5000012C04D102210448FFF7AEFF03E002217A
:100C60000148FFF7ABFF10BD0000024010B504467D
:100C7000012C04D102210448FFF79EFF03E002216A
:100C80000148FFF79BFF10BD0004024000F01F0267
:100C9000012191404209920002F1E022C2F80011C4
:100CA0007047000010B501210F2000F075F80320F7
:100CB0000E4908714FF6FF7008600D48FFF70EFFF0
:100CC0000A490C48FFF70AFF08490B48FFF706FFDF
:100CD00003200649087149F6FF7008600748FFF7CE
:100CE000FDFE00210F2000F057F810BDA4010020E8
:100CF0000004024000080240000C024000000240D4
:100D000001460020034A52680A400AB1012000E06F
:100D1000002070470070004010B50121080700F066
:100D20004BF800BF1020FFF7EBFF0128FAD04FF47B
:100D3000805000F023F80E48006820F002000C49B3
:100D400008600846006840F008000860084600682F
:100D500040F0100008600748006860F00100054995
:100D600008600548006820F400000349086010BDD1
:100D7000003C0240082401400427014001460020B5
:100D8000044A106820F4C050084320F00C02014BC4
:100D90001A6070470070004029B1064A1268024389
:100DA000044B1A6004E0034A12688243014B1A6044
:100DB000704700001C38024029B1064A12680243FD
:100DC000044B1A6004E0034A12688243014B1A6024
:100DD000704700002438024029B1064A12680243D5
:100DE000044B1A6004E0034A12688243014B1A6004
:100DF000704700001838024029B1064A12680243C1
:100E0000044B1A6004E0034A12688243014B1A60E3
:100E1000704700002038024029B1064A1268024398
:100E2000044B1A6004E0034A12688243014B1A60C3
:100E300070470000143802401248006840F4807087
:100E4000104908600F48083000680F4908400D49F4
:100E5000083108600B4800680C49084009490860DF
:100E60000846006820F480200860064808300068C2
:100E700020F47D000349083108600020091D086046
:100E800070470000003802400CC0FF88FEFFFEEEF5
:100E9000F0B5002100220023002600240025374F52
:100EA0003F6807F00C0131B1042912D0082913D092
:100EB0000C2934D113E0314F3F1F3F68C7F342354F
:100EC0006F1C4FF0010C0CFA07FC4FEACC3707609F
:100ED00033E02B4F076030E02A4F07602DE0274FAB
:100EE0003F6807F47012254F3F6807F44003264F10
:100EF00007EB92473A78012707EB93531F4F3F6860
:100F000007F480362EB91E4F5743B7FBF3F707603F
:100F100004E01C4F5743B7FBF3F707600DE0174F92
:100F20003F1F3F68C7F342356F1C4FF0010C0CFAAE
:100F300007FC4FEACC37076000BF00BF0F4F3F6888
:100F400007F0F0010909114F7C5C0768E740476032
:100F50000A4F3F6807F4E061090A0C4F7C5C476860
:100F6000E7408760054F3F6807F46051C90A074FA3
:100F70007C5C4768E740C760F0BD0000083802406D
:100F80000024F40000127A00000000200900002074
:100F90000248006800F00C0070470000083802406A
:100FA00001460020034A106820F0F000084310605A
:100FB000704700000838024001490860704700008F
:100FC0000000474201460020034A106820F4E06018
:100FD00008431060704700000838024001460020B6
:100FE000034A106820F4605040EAC1001060704766
:100FF0000838024001460020034A106820F0030030
:1010000008431060704700000838024010B54FF4E4
:10101000805000F06BF860B100221146104600F0DD
:101020001FF94FF4805000F01FF84FF40030FFF725
:101030002DFD10BD014600BF080900EB80004200F5
:1010400001F00F001044C0B270470146002204E0D6
:10105000501CC2B2A1F10A00C1B20A29F8DA100785
:1010600041EA106070470000002101098AB242F095
:101070008002044B1B6803F0800363EA0202014B09
:101080001A6070470C28004008B50022009200202A
:101090000021104A126802F04002CAB9421E0D4BEC
:1010A0001A6000BF0B4A126802F04001009A521CFD
:1010B0000092009AB2F5005F01D00029F2D0054AF3
:1010C000126802F040020AB1012002E0002000E0B4
:1010D000012008BD0C2800400348006820F0800073
:1010E00001490860704700000C28004030B50146F7
:1010F0000020002200230D4C246804F004020B4C55
:10110000383C24680C408D0C21FA05F502EAD535EF
:1011100044EA0503054C343C246804EA11121BB16F
:1011200094B20CB1012000E0002030BD4028004006
:101130002DE9F04105460C46002600274DB92E4802
:10114000006800F0400000B102E00020E07000BF45
:101150000DE02948006800F0400020B12078FFF73A
:1011600069FF064602E00020E07000BF00BF55B1F5
:1011700020780004617840EA0120A1780843E178F2
:1011800040EA014611E02078FFF75FFF4FEA004890
:101190006078FFF75AFF48EA0028A078FFF755FF6C
:1011A00048EA0008E07848EA0046CA2012491C31A3
:1011B000086053200860FFF767FF08B9002713E0B5
:1011C0000E4830400C4908390860FFF785FF0A488F
:1011D000006800F0200030B900F012F808B90027CC
:1011E00002E0012700E00127FF2003491C310860CD
:1011F0003846BDE8F0810000082800407F7F7F006E
:1012000008B50022009200200021CA22134B1A6068
:1012100053221A60114A183A126822F0A0020F4BAA
:10122000183B1A6000BF0D4A183A126802F02001FC
:10123000009A521C0092009AB2F5004F01D000298A
:10124000F1D0064A183A126802F020020AB10120D1
:1012500000E00020FF22014B1A6008BD2428004056
:10126000F8B506460C4615468DF800608DF801402D
:101270008DF8025069460020FFF75AFFF8BD0000C4
:1012800010B50446012C04D110210448FFF794FC4A
:1012900003E010210148FFF791FC10BD000002405F
:1012A00010B501210320FFF777FD002005490870E4
:1012B0002020FFF703FC01F07FFA1E2001F02EFA38
:1012C00010BD0000B40100202DE9F04F87B0834627
:1012D0000C46204602F01EF80746244A244B01F033
:1012E0001DFB05460E46204602F014F80746214A2B
:1012F000214B01F0E5FD81462A46334601F0CAFB49
:10130000CDE902011D49584602F092F8074602F065
:1013100001F8054600F07AFECDE90001DDE902237F
:1013200001F0FCFACDE9040101F0C6FA0690069836
:1013300001F0F0FF07460F4A0F4B01F0F5FE05469E
:101340000E46069801F0E6FF0746084A084B01F0F2
:10135000B7FD2A463346CDE9040101F09BFB8146E7
:1013600001F0AAFA07B0BDE8F08F0000A4703D0AB2
:10137000D7636E401F85EB51B89E31400000C842D4
:101380002DE9F34F87B08A465D4800785D490978BA
:10139000084000284DD0079802F028F90746079822
:1013A00002F024F98046584902F034F906463946DD
:1013B00002F030F90446079802F018F9074653493D
:1013C00002F028F90646524901F0D0FF05462146B1
:1013D00001F0CCFF0690069801F09CFF04460D46F4
:1013E000079802F003F94B49009002F013F9834685
:1013F000494901F0BBFF019001F08CFFCDE90201EA
:10140000504601F087FF0022444BCDE9000101F076
:1014100097FE0646DDE9022301F052FD22462B46E7
:10142000CDE9040101F07AFA804601F045FA069010
:101430004BE0079802F0DAF80746079802F0D6F872
:101440008046374902F0E6F80646394602F0E2F8EF
:101450000446079802F0CAF80746324902F0DAF863
:1014600006462B4901F082FF0546214601F07EFF2A
:101470000690069801F04EFFCDE90401079802F0AE
:10148000B5F88346284902F0C5F80746224901F01D
:101490006DFF064601F03EFFCDE90001504601F028
:1014A00039FF064600221D4B01F04AFE8046DDE969
:1014B000002301F005FDCDE90201DDE9042301F07F
:1014C0002DFA044601F0F8F90690069801F022FF83
:1014D00004460022154B01F0F1FD01D2144806909C
:1014E000069801F017FF0446124A134B01F0ACFCBA
:1014F00001D212480690069809B0BDE8F08F0000AE
:10150000B4010020C00100203B25D6B9BD52163FD2
:10151000C5FE02C0ACC5A73A0AD7233C000039403B
:10152000F624D6B5BD52163DACC5A73800005940CB
:101530000000C8429A9999999999B93FCDCCCC3D70
:1015400070B504460E4800780E490978084058B135
:10155000204602F04BF806460B4902F05BF80546C0
:101560000A4901F003FF70BD204602F03FF806462D
:10157000074902F04FF80546044901F0F7FEF2E78B
:10158000B4010020C00100200AD7233D666620C2B6
:101590000AD7233C10B50446012C04D101030548A9
:1015A000FFF70AFB04E04FF480510248FFF706FB07
:1015B00010BD00000004024010B5012251031C4878
:1015C000FFF702FB012291031948FFF7FDFA012101
:1015D000184800F027F90321164800F023F90021EC
:1015E000144800F01FF90121124800F01BF90021F6
:1015F000104800F017F901210E4800F013F9D52129
:101600000C4800F00FF9CA210A4800F00BF90B2032
:1016100000F05AFC00224FF400510548FFF7D4FABD
:1016200000224FF480410248FFF7CEFA10BD0000BF
:10163000000402400048004010B501210220FFF7DD
:10164000ABFB0120064908710020C8718871487100
:101650004FF4C04008600348FFF740FA10BD000097
:10166000A40100200004024010B5FFF7E5FB0120B3
:10167000FFF7A2FC0020FFF793FC0020FFF7AEFC71
:101680000020FFF79FFC0120FFF7B4FC00BFFFF72D
:101690007FFC0428FBD110BD70B500220020002182
:1016A000002400232D4D2D6805F00C0232B1042AD0
:1016B00010D0082A12D00C2A36D113E0274D2D1F46
:1016C0002D68C5F342335D1C0126AE40F503244E60
:1016D000356035E0234D224E356031E0224D204EFD
:1016E00035602DE01D4D2D6805F470101B4D2D68E3
:1016F00005F440011D4D05EB90452878012505EBCB
:101700009151164D2D6805F4803434B9154D45437B
:10171000B5FBF1F5124E356005E0134D4543B5FBC1
:10172000F1F50F4E35600BE00C4D2D1F2D68C5F304
:1017300042335D1C0126AE40F503094E356000BF03
:1017400000BF064D2D68C5F30315094E725D044DAB
:101750002D68D540024E356070BD0000083802404B
:10176000CC0100200024F40000127A00D0010020F7
:10177000D90100201448006840F4807012490860C4
:10178000114808300068114908400F4908310860C5
:101790000D4800680E4908400B490860084600687B
:1017A00020F48020086008480830006820F47D009C
:1017B0000549083108600020091D08604FF00060ED
:1017C0000449086070470000003802400CC0FF88E0
:1017D000FEFFFEEE08ED00E000204FF0E021086182
:1017E0000846006940F004000861002088617047E5
:1017F0004FF0E021486100214FF0E0229161114655
:10180000096941F001011161704770B505460C4648
:1018100004E02178284600F005F8641C20780028B0
:10182000F7D170BD70B504460D46A0880020A08099
:101830002946204600F07BF900BF8021204600F0B9
:10184000D8F80028F9D070BD08B51E4800F0C2F8DD
:1018500000909DF800101C48FFF7E4FF1B4800783B
:101860002B2806D19DF80000562802D101201849E6
:1018700008701748007801281FD19DF8000015490D
:10188000154A1278885414480078401C1249087090
:1018900008460078401E0F49085C0A280DD1002038
:1018A0000D4908700A49087001200C49087000228F
:1018B00040F22551034800F0A9F89DF800000349C3
:1018C000087008BD00440040003801406801002055
:1018D0007A0100208A01002079010020780100208F
:1018E00010B50B4800F01EF90A4908700846007848
:1018F00009490A4A1268885408480068401C074988
:10190000086008460068072801D10020086010BD63
:1019100000480040690100206A0100207401002095
:1019200021B1828942F40052828104E082894DF61D
:10193000FF731A408281704710B5044620488442E4
:1019400009D101218803FFF767FA00214FF4804095
:10195000FFF762FA32E01B48844209D101214804B2
:10196000FFF73AFA00214FF40030FFF735FA25E08F
:101970001548844209D101218804FFF72DFA00217E
:101980004FF48020FFF728FA18E01048844209D16C
:101990000121C804FFF720FA00214FF40020FFF7CF
:1019A0001BFA0BE00A48844208D101210805FFF721
:1019B00013FA00214FF48010FFF70EFA10BD00005B
:1019C000003801400044004000480040004C004006
:1019D0000050004070B5054600BF2021284600F0A9
:1019E00008F80028F9D0284600F09CF8C4B2204638
:1019F00070BD02460020B1F5007F00D100BF138802
:101A00000B400BB1012000E000207047F0B5034609
:101A1000002400260025002040F66A17B94200D1B4
:101A200000BF1846C1F3421401F01F06012707FA50
:101A300006F5012C01D10C3004E0022C01D110304C
:101A400000E014301AB107682F43076002E007680E
:101A5000AF430760F0BD00002DE9FF4705460E4685
:101A60000024A14600BFA046B08900B100BF2C8A67
:101A700024F44054F08804432C82AC8941F20C6079
:101A80008443B08831890843718908430443AC8199
:101A9000AC8A24F44074B0890443AC826846FFF7F2
:101AA000F7F91F48854202D1DDF80C9001E0DDF81E
:101AB0000890A88900F4004040B109EBC90000EB90
:101AC000091031684900B0FBF1F707E009EBC900E4
:101AD00000EB091031688900B0FBF1F76420B7FB17
:101AE000F0F004012009642101FB1078A88900F4BA
:101AF000004040B1322000EBC800B0FBF1F000F034
:101B00000700044308E0322000EB08106421B0FB1A
:101B1000F1F000F00F0004432C81BDE8FF870000C6
:101B20000038014001468888C0F308007047C1F3BF
:101B3000080282807047000010B51A48FFF7FCFECB
:101B400001218803FFF758F901210846FFF724F91E
:101B50000220154908710020C871887148714FF43E
:101B6000C06008601148FEF7B9FF072209210F483D
:101B7000FEF7F6FF07220A210C48FEF7F1FF4FF4AB
:101B800016500B4908600C2048810020888188800D
:101B90000881C8800348FFF75FFF01210148FFF774
:101BA000BFFE10BD00380140A4010020000002402B
:101BB000D403002010B51E48FFF7BEFE01214804E3
:101BC000FFF7FAF801210846FFF7E6F80220194965
:101BD00008710020C871887148710C20086016488F
:101BE000FEF77CFF072202211348FEF7B9FF072208
:101BF00003211148FEF7B4FF4FF416500F49086057
:101C00000C2048810020888188800881C88008488D
:101C1000FFF722FF01210648FFF782FE012240F272
:101C200025510348FFF7F2FE2620FFF72FF810BDDD
:101C300000440040A401002000000240D403002022
:101C400010B51F48FFF778FE01218804FFF7B4F8AC
:101C500001210220FFF7A0F802201A490871002094
:101C6000C871887148714FF4406008601648FEF7EB
:101C700035FF07220A211448FEF772FF07220B21C5
:101C80001148FEF76DFF4FF41650104908600C2004
:101C900048810020888188800881C8800848FFF733
:101CA000DBFE01210648FFF73BFE012240F22551F1
:101CB0000348FFF7ABFE2720FEF7E8FF10BD00004A
:101CC00000480040A401002000040240D40300208A
:101CD0002DE9F0414F1E00EBC7010446D1E9000198
:101CE00015461E4637F006020DD02A46334601F04F
:101CF000E7F87F1E04EBC703D3E9002300F00EFED4
:101D000037F00602F1D1022F25D0042F13D0062F71
:101D100018BFBDE8F0812A46334601F0D1F8D4E976
:101D20000A2300F0FBFD2A46334601F0C9F8D4E946
:101D3000082300F0F3FD2A46334601F0C1F8D4E948
:101D4000062300F0EBFD2A46334601F0B9F8D4E94A
:101D5000042300F0E3FD2A46334601F0B1F8D4E94C
:101D6000022300F0DBFD2A46334601F0A9F8D4E94E
:101D70000023BDE8F04100F0D1BD00000022134671
:101D80001046014900F086BE0000F03F012201F03C
:101D9000B4BD002213461046114600F07BBE000081
:101DA0002DE9F04F85B004460E4600250020049032
:101DB000814608E02F48FEF789FD049944F8210088
:101DC0000498401C04900498B042F3DB002E04DC1D
:101DD0000020014605B0BDE8F08F052E11DA002580
:101DE00003E054F8250081446D1CB542F9DB99FBF2
:101DF000F6F0039001F011F8074688463846414650
:101E0000E8E7D4E90001884204DAD4F800B0D4F855
:101E100004A003E0D4F804B0D4F800A0022513E035
:101E200054F82500584503DAD94454F825B00AE09F
:101E300054F82500504503DDD14454F825A002E0B4
:101E400054F8250081446D1CB542E9DBB01E00F05A
:101E5000E4FFCDE90201484600F0DFFFCDE90001D3
:101E6000DDE9022300F016FE074688463846414663
:101E7000B0E700000024014001460020082206E0EF
:101E80000B4660F35F03D8B24910531EDAB2002A42
:101E9000F6DC704730B531230C7844400C700822D2
:101EA0000FE00C7804F080042CB10C78312585EA21
:101EB00044040C7003E00C786406240E0C70541E6D
:101EC000E2B2002AEDDC30BD00B503460BE043F67C
:101ED0007F60FFF78DFC00BF4FF0E020006900F449
:101EE00080300028F8D0181EA3F10103EFD100BD07
:101EF00070B504460D46A1B20548FFF718FE00BFB5
:101F000080210348FFF775FD0028F9D0204670BDF9
:101F10000044004070B505460024082618E060061D
:101F2000040E012220212048FEF74EFE0120FFF77B
:101F3000CBFF40211C48FEF736FE0443002220213F
:101F40001948FEF741FE0120FFF7BEFF701EC6B222
:101F5000002EE4DC4020FEF7B1FD0DB9012000E0C9
:101F60000020024640211048FEF72EFE0120FFF718
:101F7000ABFF012220210C48FEF726FE0320FFF7CD
:101F8000A3FF002220210848FEF71EFE0120FFF7D4
:101F90009BFF4020FEF780FD012240210248FEF712
:101FA00013FE204670BD00000000024070B50446DC
:101FB0000120FFF7AFFF054612492846FFF76AFFE9
:101FC00025800120FFF7A6FF05460E492846FFF7AA
:101FD00061FF207845EA002020800020FFF79AFF6B
:101FE00005462846FFF748FF054606480078854223
:101FF00005D04FF6FF7020800348007870BD0020A8
:10200000FCE70000C8010020C50100202DE9F04DCB
:10201000C84A002490B0914205DA21F0004393426F
:1020200001D805D120B110B0BDE8F04DFFF7AEBE2C
:10203000B1F5801F1BDA53EA000209D0002911DA3A
:102040000120FEF750FA10B0BDE8F04DFFF7A1BE39
:102050000220FEF748FAFFF791FE10B081F0004130
:10206000BDE8F08D6FF03504362201F046FC04EB3C
:102070002152C1F31308B049A2F2FF33414401F4E5
:10208000801282F07F6103EB225281F04051009276
:1020900041EA08010022A94B01F052F8044608F178
:1020A0000200A74EC0F313000D467E44032867D2FA
:1020B000D6E90023204600F045FE1ED100980028F6
:1020C00002BFD6E9000110B0BDE8F08D00F0A5FE1A
:1020D00007460C469B4A9C4B00F0F2FE06460D4616
:1020E0009A4A9B4B3846214600F0EAFE10B0324631
:1020F0002B46BDE8F04D00F011BC4FF05532954B2A
:102100002046294600F0DCFE0022934B01F00CF83B
:1021100006460F4622462B461046194600F0D0FED2
:1021200032463B4600F0CCFE064600980F46F0B122
:1021300000F073FE80468A46824A834B00F0C0FE60
:1021400032463B4600F0F0FF22462B4600F0F8FFF7
:1021500005460C467D4A7E4B4046514600F0B0FE97
:1021600010B02A462346BDE8F04D00F0E9BF0B460B
:1021700010B0324620462946BDE8F04D00F0E0BFE1
:1021800000224FF08043204600F0C8FB02460B4679
:102190002046294600F07EFC06460F46009800F0D7
:1021A0003CFECDE9040132463B461046394600F07C
:1021B00087FE0C9069480C9A4044019009910B46A7
:1021C000104600F07DFE8246024665488B46C8F107
:1021D00051080B4608F5D72803217844FFF778FD0E
:1021E00052465B4600F06CFE0A905E480D915246E6
:1021F0005B4604217844FFF76BFD099B0C9A00F0C5
:102200005FFE844601980D9B40EA080860460A9AE2
:1022100000F084FB83460891B8F1000F4EDD4FF0CB
:10222000FF322046294601F068FB22462B4600F08B
:1022300047FE804600988A4660B3DDE90401414AC2
:10224000414B00F03DFE099100905A4640465146F0
:10225000089B00F063FB32463B4600F031FE099BD1
:10226000009A00F05BFB4246534600F05DFF2246B9
:102270002B4600F065FF04460D46DDE90401334AB4
:10228000334B00F01DFE10B022462B46BDE8F04D4A
:1022900000F056BF5A464046089B00F03FFB3246CE
:1022A0003B4600F00DFE4246534600F03DFF10B0A5
:1022B00022462B46BDE8F04D00F036BF009840B3F3
:1022C000DDE904011F4A204B00F0FAFD80468A46F2
:1022D0005A4620462946089B00F032FF32463B46CC
:1022E00000F0EEFD4246534600F02AFF22462B4600
:1022F00000F026FF04460D46DDE90401134A144BA5
:1023000000F0DEFD10B022462B46BDE8F04D00F097
:1023100017BF0B465A462046294600F011FF3246A9
:102320003B4600F0CDFD10B022462B46BDE8F04DF7
:1023300000F0FABE0000F07F645F09000000F03F8B
:102340003A190000763C7935EF39EA3D0000E0FEAD
:10235000422EE63F5555D53F0000E03F86EBF9FFA2
:10236000D2170000D017000010B50BA10C48FFF7E2
:102370004CFA6420FFF7A8FD0AA10948FFF745FAC7
:102380006420FFF7A1FD0BA10548FFF73EFA64208A
:10239000FFF79AFD10BD000041540D0A0000000037
:1023A0000044004041542B4D4F44453D5445535447
:1023B0000D0A000041542B544553543D52464346A8
:1023C000472C3433330D0A0086B0FFF74DF9FFF781
:1023D00063F9FFF701FAFEF79FFCFEF763FCFEF7D7
:1023E0000BFCFFF7A9FBFFF7E5FB40F2DC50FFF722
:1023F0006BFDFFF7B9FFFFF71FF9FFF721FC012085
:10240000FEF724FC0120FFF7C5F80020FEF74EFA86
:102410000020FEF72BFCFEF743FF0120FEF730FF04
:10242000FEF7FEF94FF47A70FFF74EFD6B48FEF7AA
:10243000D1FBD2E06AA16D48FFF7E7F96420FFF70E
:1024400043FD6B48007801281AD16A486A49D1F8DF
:102450000510016001466948FEF70CF86548002147
:1024600001608180817164480160818081710122F5
:1024700040F225515D48FFF7C9FA00205C49087019
:102480005F4802785F496048007800F0FBF85D48DB
:102490000088FFF755F85D490860594802785949A6
:1024A0005B48007800F0EEF858480168554800880D
:1024B000FEF766FF574908605448016855480068B0
:1024C000FEF702FF5449086014215448FFF768FCE6
:1024D000534A03C214215148FFF762FC0746002209
:1024E000504B00F0D7FA05464FF066324E4B00F0E5
:1024F000E7FC4E4A03C24FF000094C480CC80020CC
:102500004B4900F0DDFC07460022134600F006FAB6
:10251000054600F053FC8146FFF74EF84FF47A7001
:10252000FFF7D2FC43480379C27843A14448FDF742
:102530008FFE102200214248FDF764FF0446364812
:10254000006801F037F805463248006801F032F8BB
:1025500006462E48006801F02DF80746642094FBDB
:10256000F0F826484346374A37A1CDE90259CDE96C
:10257000007604903A48FDF76BFE642094FBF0F07F
:1025800000280BDB642094FBF0F0642806DCFFF7E6
:10259000EBFE334933A0FDF74FFE0FE030493748DB
:1025A000FFF733F90020FEF7F5FF6420FFF78CFCFE
:1025B0000120FEF7EFFF6420FFF786FC0F480021A3
:1025C0000160818081714FF47A60FFF77DFC4FF4E8
:1025D00080712B48FEF7F4FA00BF2BE7B40200200D
:1025E00041542B5644440D0A0000000000440040B2
:1025F00078010020910100208A010020980100202C
:10260000BE01002088010020BC0100207C010020C8
:10261000BD0100208001002084010020EC01002089
:10262000580000200000904066660A4048000020E4
:1026300000000C406A0100202558255800000000C9
:10264000C80300206800002025735F25645F2564AF
:102650005F25645F25645F25645F25730A000000C1
:10266000C802002041542B544553543D54584C52F9
:102670005354522C25730D0A00000000003801400D
:10268000000402402DE9F04107460C4690461D49E2
:10269000097801F00700FFF7EFFB1B49087000F015
:1026A000B3F81A480078874201D1032700E00527D4
:1026B000384600F033F8A84202D12846BDE8F08140
:1026C00011493846FFF7E6FBB8F1000F03D1104877
:1026D00004600020F2E7F02608E0701EC6B216B9CA
:1026E0000C480078EAE70320FFF7EEFB40210A4898
:1026F000FEF759FA0028F0D12046FFF757FC0546AF
:102700002846DBE7B4010020C8010020BC010020FE
:10271000B8010020C6010020000002402DE9F04170
:10272000044600274020FEF7C9F9802508261BE053
:1027300004EA050240211E48FEF746FA0120FFF791
:10274000C3FB012220211A48FEF73EFA0320FFF7BF
:10275000BBFB002220211648FEF736FA0120FFF7C6
:10276000B3FB6D10701EC6B2002EE1DC4020FEF7F8
:1027700093F9012240210E48FEF726FA012220217A
:102780000B48FEF721FA0320FFF79EFB4021084883
:10279000FEF709FA08B1074807780120FFF794FB14
:1027A000002220210248FEF70FFA3846BDE8F081EA
:1027B00000000240C401002010B54020FEF77EF961
:1027C000012240210F48FEF7FFF90320FFF77CFBB1
:1027D000002411E0012220210A48FEF7F5F9032028
:1027E000FFF772FB002220210648FEF7EDF90320D7
:1027F000FFF76AFB601CC4B2092CEBDB00F004F8A5
:1028000010BD00000000024010B54020FEF756F950
:10281000012240211C48FEF7D7F90120FFF754FBA5
:10282000012220211848FEF7CFF90120FFF74CFBC9
:10283000002240211448FEF7C7F90120FFF744FBAE
:10284000002220211048FEF7BFF90320FFF73CFBD0
:10285000012220210C48FEF7B7F90120FFF734FBD5
:10286000012240210848FEF7AFF90120FFF72CFBB9
:10287000002220210448FEF7A7F90120FFF724FBDE
:102880004020FEF709F910BD0000024010B50029F4
:102890000AD00878002807D005487844FDF760FF83
:1028A000002801D0002010BD0248784410BD00006F
:1028B000761100006E11000021F00042A2F160527A
:1028C000B2F5801F01F0004328BFD2F17F6C0BD915
:1028D0005FEA001C43EAC20242EB507018BF704727
:1028E00028BF20F001007047B2F5801FBCBF18461A
:1028F00070474FEA410C1CF5001F02D2084600F059
:1029000050BF70B500F086FB00000089FFF7F6BFEE
:102910004FF00040A0F580007047000010B591EA2C
:10292000030F48BF83F0004300F11284841A71EB57
:10293000030C05D2121943EB0C03001B61EB0C01D5
:10294000DFF824E14FEA1154A4EB135C1EEA430FB5
:1029500018BF9EEA445F73D023EA0E03DCF1200E19
:1029600021EA045143F4801332D322FA0CFE10EB17
:102970000E0023FA0CFE41EB0E01CCF1200E03FAFF
:102980000EFE10EB0E0051F10001B1F5801FCCF1ED
:10299000200E32D201EB045112FA0EF2BDE81040C3
:1029A00058BF7047401C38BF5FEA420218BF7047EB
:1029B000002814BF20F0010041F100014FEA41035B
:1029C00013F5001F38BF7047A1F1C04100F070BB84
:1029D000012A43EB0302ACF1200CDCF11F0E32BFE5
:1029E0004FF0000E23FA0CF310EB030041EB0451FF
:1029F000B4EB115FD0D0A1EB045101F5801149086F
:102A00005FEA300001EB04510ED350F1000038BFF3
:102A100012FA0EFE08D1BDE81040C9E7401C38BFCD
:102A20005FEA4202CAD1C3E7BDE810404FEA410362
:102A300013F5001F38BF7047A1F1C04100F038BB4B
:102A40009EEA445F08D011EA5E0FBDE8104004BF63
:102A500001F0004100207047BDE8104070B500F063
:102A6000D9FA00BF64FBBE3E0000E0FF02494FF010
:102A7000000000F010BF00BF0000F87F491058BFF1
:102A8000C1F140415B1058BFC3F140438B42EFF3AB
:102A9000008070472DE9C04130B4DFF8A0C23CEAA5
:102AA000111418BF3CEA131400F0EC8081EA03050E
:102AB0001CEA111444EAD57418BF1CEA131500F07F
:102AC000C780A4EB05044FF0004545EAC12145EA63
:102AD000C32341EA505143EA525304F17F749942AF
:102AE00004F500344FEAC0204FEAC22208BF9042EA
:102AF00000F09C804FEA13650FF24016765D4FEAB6
:102B0000134506FB05F7C7F1807706FB07F74FEA89
:102B1000D737A7FB03687642C8F58038A7FB06CEF7
:102B200038BFA8F1010807FB08E64FF0000EA6FB2E
:102B3000028CE6FB03CEDCF1000CCEF1004E38BF78
:102B4000AEF1010EA6FB0C584FF000074FF0000548
:102B5000E6FB0E87A1FB08C6A0FB07CE16EB0E0610
:102B600045F10005E1FB076515F1E04E7EBFA4F5D8
:102B700080345FEA46066D4116F1800745F1000595
:102B80004FEA17274FEA066647EA0567A6F1DE46D1
:102B9000B6F1805F4FEA15251FD9384624F0010CA5
:102BA00005EBC471BCF1FE6F01EB0C1102D8F0BC57
:102BB000BDE8008124425CBF01F5801E9EEAC47F0F
:102BC00002D4F0BCBDE80081244238D4F0BCA1F1AD
:102BD000C041BDE8004100F06BBA4FEAD22242EAA0
:102BE00043524FEAD323A7FB02864FEAD02040EAA4
:102BF000415007FB03661EEA0E0F4FEAD12105FB89
:102C0000026658BFA6EB0056B6EB00564FEA520ECE
:102C10004EEAC37E18EB0E0E56EB530EBDD518EBE5
:102C200002085E417F1C55F10005B6E74FF48015A0
:102C30004FF000074FF000064FF00008ADE7F0BC82
:102C40004FF0000001F1C04101F00041BDE80081FA
:102C500011EA0C1F0CEA131500D00CE013EA0C1F4C
:102C600000F025804FF00000F0BC81EA030101F084
:102C70000041BDE80081F0BCBDE8004181EA0301EC
:102C800000F016BAF0BCBDE8004170B500F0C2F922
:102C9000097EFC3E00F007B881EA03014FF0000016
:102CA00001F00041704781EA030100F001BAF0BC75
:102CB000BDE800414FF0000021497047FFFDFBF9DE
:102CC000F7F5F4F2F0EEEDEBE9E8E6E4E3E1E0DE5F
:102CD000DDDBDAD8D7D5D4D3D1D0CFCDCCCBCAC8D1
:102CE000C7C6C5C4C2C1C0BFBEBDBCBBBAB9B8B7F8
:102CF000B6B5B4B3B2B1B0AFAEADACABAAA9A8A8EB
:102D0000A7A6A5A4A3A3A2A1A09F9F9E9D9C9C9BB8
:102D10009A99999897979695959493939291919063
:102D20008F8F8E8E8D8C8C8B8B8A898988888787F4
:102D30008685858484838382828181800000FF0769
:102D40000000F87F51EA030C17D41CF5801F58BF10
:102D5000BCF5801F00F10680994218BF704708BF7C
:102D60009042704707D711F5801F58BF13F5801F99
:102D700019D499427047894270471CF5801F08D5C5
:102D8000BCF5801FF7D58B4218BF704708BF824241
:102D900070474FF4001C1CEB410F38BF1CEB430F76
:102DA00001D28B42704770B500F034F9922449008B
:102DB0004FF000514FF08053FFF760BE4FEA4103E0
:102DC0004FEA5353A3F58063D3F11E03C8BFD3F179
:102DD000210C0CDD4FF0004242EAC12242EA50527F
:102DE00032FA03FC8CEAE17CACEBE1707047102B0B
:102DF000C4BF0020704703F5787CBCF1FF3F04D0CE
:102E00006FF0004282EA2100704770B500F002F9CD
:102E10004992248000207047F2E710F0004248BF3A
:102E20004042B0FA80F310FA03F10AD0C3F11D0357
:102E300003F580634FEA415002EB035202EBD121CC
:102E400070474FF00000704751EA030C17D41CF58F
:102E5000801F58BFBCF5801F00F10680994218BF43
:102E6000704708BF9042704707D711F5801F58BFC1
:102E700013F5801F19D499427047894270471CF599
:102E8000801F08D5BCF5801FF7D58B4218BF70474F
:102E900008BF824270474FF4001C1CEB410F38BF43
:102EA0001CEB430F01D28B42704770B500F0B2F8B3
:102EB000922449004FF000514FF08053FFF7DEBDE0
:102EC000DFF848C170B51CEA111E1EBF1CEA1315BD
:102ED0009EEA0C0F95EA0C0F00F06F8081EA030464
:102EE00023EA4C134EEAD47E21EA4C1141F48011BE
:102EF00043F48013AE44A1FB024CA0FB0365AEF18A
:102F00007F7E361955EB0C05A1FB034C4CF10003F9
:102F1000A0FB021C16EB0C06654153F100030942AD
:102F200018BF46F0010613F4007F0BD14FEA0331BE
:102F30004FEA0530340341EA155140EA16506FF06C
:102F400003020AE04FEAC3214FEAC520F40241EA36
:102F5000555140EA56506FF0020202EB2E4201EB4F
:102F6000025585EACE710AD05FEA440C18BF24F0FE
:102F7000004450F1000041F1000120EAD47040F219
:102F8000FE7C624500D270BDA84214BF4FF0804461
:102F90004FF04044002E08BF0024BEF1806FA8BF50
:102FA000A1F1C041BDE8704080F282804FF0000086
:102FB00001F1C04101F0004170479EEA0C0F0CEA9C
:102FC000131518BF95EA0C0F06D04FF0000081EAE8
:102FD000030E0EF0004170BD00F01CF88900013EA8
:102FE00000F007B800F009B84FEA430C5FEA5C5CF8
:102FF00008D081EA030100F05BB84FEA410C5FEAB8
:103000005C5CF6D14FF00000014970470000FF07FB
:103010000000F87F0EF1020E2EF0030E5EF8046B36
:10302000364205D4012A43EB030515F5001F12D8DB
:10303000012841EB010C1CF5001F0CD80ED14FEA02
:10304000D17C15F5001F0CEB4C0C0CF1020C08BFE9
:103050004CEBD37C04E04FF0080C01E04FEAD37C4A
:103060000CEB4C0526FA05F606F00706B6F1040C43
:1030700006D20EEB860CBDE870404CF0010C6047A8
:10308000DFE80CF0090B02024FF000414FF00000A6
:10309000A1F5002170BD19461046012851EB01042D
:1030A00018BFD4F5001484BF002001F0004170BDAA
:1030B0000808A0F500114FEA3101704753EA010CEE
:1030C00017D41CF5801F58BFBCF5801F00F1068087
:1030D0008B4218BF704708BF8242704707D713F56D
:1030E000801F58BF11F5801F19D48B4270479B4237
:1030F00070471CF5801F08D5BCF5801FF7D5994295
:1031000018BF704708BF904270474FF4001C1CEB7B
:10311000430F38BF1CEB410F01D2994270470FB4E7
:103120000CBC03BCFFF7C1BE91EA030F10B581F0E0
:1031300000413FF5FBAB83F0004300F009B800000D
:1031400010B591EA030F48BF83F000433FF5EEABA3
:10315000841A71EB030C07D212198CF0004C43EB6C
:103160000C03001B61EB0C01DFF8A4E14FEA1154E2
:10317000A4EB135C1EEA430F18BF9EEA445F00F005
:10318000B08023EA6E03524221EA0451C3EB6E037E
:1031900038BF5B1EDCF1200E25D322FA0CFE10EBAB
:1031A0000E0043FA0CFE41EB0E01CCF1200E03FAA7
:1031B0000EFE10EB0E0051F10001CCF1200E29D4CF
:1031C00012FA0EF201EB0451BDE8104058BF7047EF
:1031D000401C1CBFB2F1004F704700280CBF491CB7
:1031E00020F00100704712EB020E43EB030218BF00
:1031F0004FF0010E4EEA4202ACF1200CDCF11E0E43
:1032000054D943FA0CFE10EB0E0051F1FF31CCF112
:103210001E0ED5D50EF1010E12FA0EFE404141EB05
:10322000010101EB445C5FEA5C5C10D910EBDE70DD
:1032300001EB045138BFBEF1004FBDE8104018BF8C
:10324000704700280CBF491C20F00100704730D2A5
:103250004FEAD42C11F5001124F400641BD0B1FA0C
:1032600081F20B3AA41AA41ED2F12003914030FA45
:1032700003F31943904001EBCC71002C01EB045196
:10328000BDE81040A8BF704701F1C0414FF00000F9
:1032900001F000417047B0FA80F310FA03F100D159
:1032A00010BDE41A173C4805C90AE4E701EB0451D4
:1032B00010BD491001EB0451BDE810404FEA300049
:1032C00002E04FF0000170474A0008BF0042F8D00A
:1032D000B2F5001F28BF704701F000414FF0000019
:1032E00070479EEA445F07D011EA5E0FBDE81040C8
:1032F00004BF002100207047BDE8104070B5FFF703
:1033000089FE00BF40DFF63E83F000411046704763
:103310000000E0FF43004FEAD30C4FEA3C0C43406F
:103320001FBF40070CF1605113F0FE4F70471CF0B7
:10333000006F03D100200CF0004170470CF00043F7
:1033400043EA507010B540EACC0000F0E4F900BF49
:10335000000000924FEA0001FFF7AABE4FF00041C3
:103360004FF00000A1F500217047000090EA010F26
:1033700048BF81F0004100F12082421A3CBF801A10
:1033800089184FEAD0524FF07F4C1CEA410FA2EB54
:10339000D15318BF9CEA026F00F03B804FF0004C05
:1033A0004CEA00204CEA012121FA03FC10EB0C0C42
:1033B0001ED202F1FF325FEA1C2040EBC25038BF40
:1033C00070471CF07F0F4FEA400C18BFBCF17F4FD5
:1033D00038BF7047C3F12003994008BF20F00100B7
:1033E000BCF17F4F38BF7047A0F1C04000F0D9B9A1
:1033F0004FEA3C00000A40EBC25028BF1CF0FF0F10
:103400004FEA400CE6D018BFBCF17F4F38BF704781
:10341000EAE79CEA026F05D010EA5C0F08BF00F0F3
:103420000040704710B500F076F900BF64FBBE3E67
:103430004FF47F0C1CEAD0121EBF1CEAD11392EA93
:103440000C0F93EA0C0F00F0858090EA010F48BF43
:1034500042F4807240F4000C41F400002CF07F41F3
:1034600020F07F4000B58142A2EB03020FF2081C5E
:10347000ACEB504EC0F100009EF800E04FEA4E0E5B
:1034800000FB0EFC38BF49004FEA2C1C02F5FA0283
:103490000CFB0EF34FEACE1E4FEA112C4FEAC1216E
:1034A0000EEB635E42EB22420EFB0CFC4FEA1C5318
:1034B00000FB03114FEA112C4FEA01310EFB0CFC0B
:1034C0004FEADC4C00FB0C11C14228BF09184CEB41
:1034D00003335DF804EB10EB410143EBC250B2F54E
:1034E0007C0F38BF704729D512F0F00F1CBF00F1D8
:1034F000C04000F000407047008182838485868749
:1035000088898B8C8D8E8F919293959697999A9CA2
:103510009D9FA0A2A3A5A7A8AAACAEB0B2B3B5B711
:10352000B9BCBEC0C2C5C7C9CCCED1D4D7D9DCDFE7
:10353000E2E6E9ECF0F3F7FAFE0000004FEA400C97
:103540000CF1807CBCF17E4F28BF7047B0F1C040C9
:1035500000F027B990EA010F0CEAD11348BF42F4FA
:103560008072624538BF634507D213F47F0F16D0CF
:1035700080EA010000F00040704710B500F0CBF881
:10358000097EFC3E00F005B880EA010000F0004032
:10359000704780EA010000F0004000F002B912F428
:1035A0007F0F04BF0248704780EA010000F0F9B8BD
:1035B0000000C07F41000B0ED3F19E0208D950F4E9
:1035C00000034FEA032323FA02F048BF404270474A
:1035D00010B500F0A0F800BF499224800020704789
:1035E0006FF0004282EA200070470000B0FA80F3DA
:1035F00010FA03F2C3F19D030AD0D90501EB1220A2
:10360000530638BF704700F1010008BF20F00100E9
:10361000704700004FF47F0C1CEAD0121EBF1CEA5A
:10362000D11392EA0C0F93EA0C0F00F0478090EA56
:10363000010F48BF42F480724FF0004C4CEA00206A
:103640004CEA012102EB0302A0FB0113A2F50002E8
:10365000002918BF43F001035B0028BF4FEA330382
:1036600042EB22425FEA132C4CEBC2502EBFBCEB64
:10367000436FB2F57C0F70474FEA036CBCF1004F0B
:1036800008BF20F00100B2F57C0F38BF70470BD5A2
:1036900082F0FF0212F5803FC8BF704700F1C040C2
:1036A000D8BF00F00040704700F5000C5FEA4C0CFA
:1036B00048BF7047B0F1C04000F073B890EA010F06
:1036C0000CEAD11348BF42F48072624538BF6345AB
:1036D00004D280EA010000F00040704710B500F00D
:1036E0001AF800BF8900013E00F007B800F009B8E1
:1036F0005FEA410C5FEA1C6C08D080EA010000F030
:1037000050B85FEA400C5FEA1C6CF6D14FF0004005
:10371000A0F5800070470EF1020E2EF0030E5EF849
:10372000044B244204D44FEA4102B2F17F4F11D836
:103730004FEA4003B3F17F4F0CD80ED14FEAD07C53
:10374000B2F17F4F0CEB4C0C0CF1020C08BF4CEBB0
:10375000D17C04E04FF0080C01E04FEAD17C0CEB87
:103760004C0324FA03F404F00704B4F1040C06D269
:103770000EEB840CBDE810404CF0010C6047DFE814
:103780000CF0070802024FF00040A0F5800010BDC9
:103790000846420018BFD2F1807288BF00F0004096
:1037A00010BDFF2141EAD050C005704790EA010FDB
:1037B00048BF81F000413FF5E0AD421A04D882F0E5
:1037C0000042A0EB020011444FEAD0524FF07F4C70
:1037D0001CEA410FA2EBD15318BF9CEA026F4AD0FA
:1037E0004FF0004C4CEA00204CEA012121FA03FC86
:1037F000B0EB0C0C0FD412F0FE0F36D05FEA4C0089
:103800001DD5001240EBC25038BF70471CF03F0F6F
:1038100018BF70470BE0A2F101025FEA1C2040EBE9
:10382000C25038BF70471CF07F0F18BF7047C3F1FC
:103830002003994014BF401E20F00100704780080B
:103840004FEA122308BF7047B0FA80FCA2EB0C02CB
:10385000CCF1280C60FA0CF093EA122F04BF00EBB5
:10386000C25070474FEAC3707047130A5FEADC101A
:1038700008BF7047F6E79CEA026F04D010EA5C0FBD
:1038800008BF0020704710B5FFF745FF40DFF63E48
:1038900081F0004070470CF00F03092B08BF08208F
:1038A00000F059800A2B0BD0082B18BF704708BFB7
:1038B0001CF0400F0AD04FF000004FF0000170479D
:1038C0001CF0400F18BF4FF0004070471CF0100F65
:1038D00008D020F0704300F07F4242EAD3014FEA63
:1038E0004370704700F0604021F07F4242EA0002DE
:1038F00001F07F4040EA727070474FF0FF0C4CF4CB
:10390000E06C1CEA11531CBF9CEA030C9445C2BF37
:10391000DA4201EB02517047002B0DD0BCF1000FD1
:103920000FD0002A01F00041A4BF41F0E04141F076
:103930007F614FF00000704701F000414FF0000040
:10394000704750EA01334FF09B0C18BF4CF0806C6D
:103950007FF48CA870471CF4801F11D01CF4E02F5A
:1039600003D06FEACC31490070474FF04050EFF37D
:10397000008222F0704242EA000282F3008870471F
:103980004FF0000070473031323334353637383934
:10399000414243444546403058003031323334359B
:1039A00036373839616263646566403078000000FC
:1039B00004FA97999999D93FAF788E1DC571CC3F7C
:1039C0009FC678D0099AC33F935555555555E53F45
:1039D000599322942449D23FDE03CB966446C73FD5
:1039E00044523EDF12F1C23F000000000000000020
:1039F000203B000800000020EC010000300100081E
:103A0000703B0008EC0100205C0800008C010008FD
:103A10001001000043000000F8FFFFFF004040409D
:103A20004040404040404141414141404040404091
:103A3000404040404040404040404040400502023D
:103A400002020202020202020202020202202020FC
:103A50002020202020202002020202020202909058
:103A60009090909010101010101010101010101056
:103A700010101010101010100202020202028888AA
:103A800088888888080808080808080808080808B6
:103A9000080808080808080802020202400000009E
:103AA0000000000000000000000000000000000016
:103AB0000000000000000000000000000000000006
:103AC00000000000000000000000000000000000F6
:103AD00000000000000000000000000000000000E6
:103AE00000000000000000000000000000000000D6
:103AF00000000000000000000000000000000000C6
:103B000000000000000000000000000000000000B5
:103B100000000000000000000000000000000000A5
:103B2000400A030406080C101820302D010203047B
:103B30000495060708092B803F04053CCDCCCC3DFD
:103B400004FF473034E1021F010A233045120150BF
:103B5000090102044001020304780C48E80103044F
:103B600006080C10182040291D350607080900001A
:04000005080000F5FA
:00000001FF
